{
  "_format": "hh-sol-artifact-1",
  "contractName": "NFTAuction",
  "sourceName": "contracts/NFTAuction.sol",
  "abi": [
    {
      "inputs": [],
      "stateMutability": "nonpayable",
      "type": "constructor"
    },
    {
      "anonymous": false,
      "inputs": [
        {
          "indexed": true,
          "internalType": "uint256",
          "name": "auctionId",
          "type": "uint256"
        },
        {
          "indexed": false,
          "internalType": "uint256",
          "name": "tokenId",
          "type": "uint256"
        },
        {
          "indexed": false,
          "internalType": "uint256",
          "name": "startPrice",
          "type": "uint256"
        },
        {
          "indexed": false,
          "internalType": "uint256",
          "name": "endBlock",
          "type": "uint256"
        }
      ],
      "name": "AuctionCreated",
      "type": "event"
    },
    {
      "anonymous": false,
      "inputs": [
        {
          "indexed": true,
          "internalType": "uint256",
          "name": "auctionId",
          "type": "uint256"
        },
        {
          "indexed": true,
          "internalType": "address",
          "name": "winner",
          "type": "address"
        },
        {
          "indexed": false,
          "internalType": "uint256",
          "name": "winningBid",
          "type": "uint256"
        }
      ],
      "name": "AuctionEnded",
      "type": "event"
    },
    {
      "anonymous": false,
      "inputs": [
        {
          "indexed": true,
          "internalType": "uint256",
          "name": "auctionId",
          "type": "uint256"
        },
        {
          "indexed": true,
          "internalType": "address",
          "name": "bidder",
          "type": "address"
        },
        {
          "indexed": false,
          "internalType": "uint256",
          "name": "bidAmount",
          "type": "uint256"
        }
      ],
      "name": "BidPlaced",
      "type": "event"
    },
    {
      "inputs": [],
      "name": "auctionNumber",
      "outputs": [
        {
          "internalType": "uint256",
          "name": "",
          "type": "uint256"
        }
      ],
      "stateMutability": "view",
      "type": "function"
    },
    {
      "inputs": [
        {
          "internalType": "uint256",
          "name": "",
          "type": "uint256"
        }
      ],
      "name": "auctions",
      "outputs": [
        {
          "internalType": "uint256",
          "name": "id",
          "type": "uint256"
        },
        {
          "internalType": "contract IERC721",
          "name": "token",
          "type": "address"
        },
        {
          "internalType": "uint256",
          "name": "tokenId",
          "type": "uint256"
        },
        {
          "internalType": "uint256",
          "name": "startPrice",
          "type": "uint256"
        },
        {
          "internalType": "uint256",
          "name": "endBlock",
          "type": "uint256"
        },
        {
          "internalType": "address",
          "name": "highestBidder",
          "type": "address"
        },
        {
          "internalType": "uint256",
          "name": "highestBid",
          "type": "uint256"
        },
        {
          "internalType": "bool",
          "name": "ended",
          "type": "bool"
        }
      ],
      "stateMutability": "view",
      "type": "function"
    },
    {
      "inputs": [
        {
          "internalType": "uint256",
          "name": "_auctionId",
          "type": "uint256"
        }
      ],
      "name": "closeAuction",
      "outputs": [],
      "stateMutability": "nonpayable",
      "type": "function"
    },
    {
      "inputs": [
        {
          "internalType": "address",
          "name": "_token",
          "type": "address"
        },
        {
          "internalType": "uint256",
          "name": "_tokenId",
          "type": "uint256"
        },
        {
          "internalType": "uint256",
          "name": "_startPrice",
          "type": "uint256"
        },
        {
          "internalType": "uint256",
          "name": "_durationBlocks",
          "type": "uint256"
        }
      ],
      "name": "createAuction",
      "outputs": [],
      "stateMutability": "nonpayable",
      "type": "function"
    },
    {
      "inputs": [],
      "name": "getBalance",
      "outputs": [
        {
          "internalType": "uint256",
          "name": "",
          "type": "uint256"
        }
      ],
      "stateMutability": "view",
      "type": "function"
    },
    {
      "inputs": [],
      "name": "getCurrentBlockNumber",
      "outputs": [
        {
          "internalType": "uint256",
          "name": "",
          "type": "uint256"
        }
      ],
      "stateMutability": "view",
      "type": "function"
    },
    {
      "inputs": [],
      "name": "owner",
      "outputs": [
        {
          "internalType": "address",
          "name": "",
          "type": "address"
        }
      ],
      "stateMutability": "view",
      "type": "function"
    },
    {
      "inputs": [
        {
          "internalType": "uint256",
          "name": "_auctionId",
          "type": "uint256"
        }
      ],
      "name": "placeBid",
      "outputs": [],
      "stateMutability": "payable",
      "type": "function"
    }
  ],
  "bytecode": "0x608060405234801561001057600080fd5b50336000806101000a81548173ffffffffffffffffffffffffffffffffffffffff021916908373ffffffffffffffffffffffffffffffffffffffff160217905550611592806100606000396000f3fe60806040526004361061007b5760003560e01c80636255ca281161004e5780636255ca28146101415780636fd902e11461016c5780638da5cb5b146101975780639979ef45146101c25761007b565b806312065fe014610080578063236ed8f3146100ab578063571a26a0146100d457806361beb1d714610118575b600080fd5b34801561008c57600080fd5b506100956101de565b6040516100a29190610e59565b60405180910390f35b3480156100b757600080fd5b506100d260048036038101906100cd9190610ea5565b6101e6565b005b3480156100e057600080fd5b506100fb60048036038101906100f69190610ea5565b6107b5565b60405161010f989796959493929190610f8d565b60405180910390f35b34801561012457600080fd5b5061013f600480360381019061013a9190611037565b61084a565b005b34801561014d57600080fd5b50610156610b83565b6040516101639190610e59565b60405180910390f35b34801561017857600080fd5b50610181610b89565b60405161018e9190610e59565b60405180910390f35b3480156101a357600080fd5b506101ac610b91565b6040516101b9919061109e565b60405180910390f35b6101dc60048036038101906101d79190610ea5565b610bb5565b005b600047905090565b3373ffffffffffffffffffffffffffffffffffffffff1660008054906101000a900473ffffffffffffffffffffffffffffffffffffffff1673ffffffffffffffffffffffffffffffffffffffff1614610274576040517f08c379a000000000000000000000000000000000000000000000000000000000815260040161026b9061113c565b60405180910390fd5b60006002600083815260200190815260200160002090508060070160009054906101000a900460ff16156102dd576040517f08c379a00000000000000000000000000000000000000000000000000000000081526004016102d4906111a8565b60405180910390fd5b80600401544311610323576040517f08c379a000000000000000000000000000000000000000000000000000000000815260040161031a90611214565b60405180910390fd5b60018160070160006101000a81548160ff021916908315150217905550600073ffffffffffffffffffffffffffffffffffffffff168160050160009054906101000a900473ffffffffffffffffffffffffffffffffffffffff1673ffffffffffffffffffffffffffffffffffffffff16146105f3578060010160009054906101000a900473ffffffffffffffffffffffffffffffffffffffff1673ffffffffffffffffffffffffffffffffffffffff1663095ea7b38260050160009054906101000a900473ffffffffffffffffffffffffffffffffffffffff1683600201546040518363ffffffff1660e01b815260040161041f929190611234565b600060405180830381600087803b15801561043957600080fd5b505af115801561044d573d6000803e3d6000fd5b505050508060010160009054906101000a900473ffffffffffffffffffffffffffffffffffffffff1673ffffffffffffffffffffffffffffffffffffffff166323b872dd308360050160009054906101000a900473ffffffffffffffffffffffffffffffffffffffff1684600201546040518463ffffffff1660e01b81526004016104da9392919061125d565b600060405180830381600087803b1580156104f457600080fd5b505af1158015610508573d6000803e3d6000fd5b5050505060008054906101000a900473ffffffffffffffffffffffffffffffffffffffff1673ffffffffffffffffffffffffffffffffffffffff166108fc82600601549081150290604051600060405180830381858888f19350505050158015610576573d6000803e3d6000fd5b508060050160009054906101000a900473ffffffffffffffffffffffffffffffffffffffff1673ffffffffffffffffffffffffffffffffffffffff16827fd2aa34a4fdbbc6dff6a3e56f46e0f3ae2a31d7785ff3487aa5c95c642acea50183600601546040516105e69190610e59565b60405180910390a36107b1565b8060010160009054906101000a900473ffffffffffffffffffffffffffffffffffffffff1673ffffffffffffffffffffffffffffffffffffffff1663095ea7b360008054906101000a900473ffffffffffffffffffffffffffffffffffffffff1683600201546040518363ffffffff1660e01b8152600401610676929190611234565b600060405180830381600087803b15801561069057600080fd5b505af11580156106a4573d6000803e3d6000fd5b505050508060010160009054906101000a900473ffffffffffffffffffffffffffffffffffffffff1673ffffffffffffffffffffffffffffffffffffffff166323b872dd3060008054906101000a900473ffffffffffffffffffffffffffffffffffffffff1684600201546040518463ffffffff1660e01b815260040161072d9392919061125d565b600060405180830381600087803b15801561074757600080fd5b505af115801561075b573d6000803e3d6000fd5b50505050600073ffffffffffffffffffffffffffffffffffffffff16827fd2aa34a4fdbbc6dff6a3e56f46e0f3ae2a31d7785ff3487aa5c95c642acea50160006040516107a891906112cf565b60405180910390a35b5050565b60026020528060005260406000206000915090508060000154908060010160009054906101000a900473ffffffffffffffffffffffffffffffffffffffff16908060020154908060030154908060040154908060050160009054906101000a900473ffffffffffffffffffffffffffffffffffffffff16908060060154908060070160009054906101000a900460ff16905088565b3373ffffffffffffffffffffffffffffffffffffffff1660008054906101000a900473ffffffffffffffffffffffffffffffffffffffff1673ffffffffffffffffffffffffffffffffffffffff16146108d8576040517f08c379a00000000000000000000000000000000000000000000000000000000081526004016108cf9061113c565b60405180910390fd5b600160008154809291906108eb90611319565b919050555060405180610100016040528060015481526020018573ffffffffffffffffffffffffffffffffffffffff16815260200184815260200183815260200182436109389190611361565b8152602001600073ffffffffffffffffffffffffffffffffffffffff16815260200160008152602001600015158152506002600060015481526020019081526020016000206000820151816000015560208201518160010160006101000a81548173ffffffffffffffffffffffffffffffffffffffff021916908373ffffffffffffffffffffffffffffffffffffffff16021790555060408201518160020155606082015181600301556080820151816004015560a08201518160050160006101000a81548173ffffffffffffffffffffffffffffffffffffffff021916908373ffffffffffffffffffffffffffffffffffffffff16021790555060c0820151816006015560e08201518160070160006101000a81548160ff02191690831515021790555090505060026000600154815260200190815260200160002060010160009054906101000a900473ffffffffffffffffffffffffffffffffffffffff1673ffffffffffffffffffffffffffffffffffffffff166323b872dd60008054906101000a900473ffffffffffffffffffffffffffffffffffffffff1630866040518463ffffffff1660e01b8152600401610af59392919061125d565b600060405180830381600087803b158015610b0f57600080fd5b505af1158015610b23573d6000803e3d6000fd5b505050506001547fa9c8dfcda5664a5a124c713e386da27de87432d5b668e79458501eb296389ba7848460026000600154815260200190815260200160002060040154604051610b7593929190611395565b60405180910390a250505050565b60015481565b600043905090565b60008054906101000a900473ffffffffffffffffffffffffffffffffffffffff1681565b60006002600083815260200190815260200160002090508060070160009054906101000a900460ff1615610c1e576040517f08c379a0000000000000000000000000000000000000000000000000000000008152600401610c1590611418565b60405180910390fd5b8060040154431115610c65576040517f08c379a0000000000000000000000000000000000000000000000000000000008152600401610c5c90611418565b60405180910390fd5b80600301543411610cab576040517f08c379a0000000000000000000000000000000000000000000000000000000008152600401610ca2906114aa565b60405180910390fd5b80600601543411610cf1576040517f08c379a0000000000000000000000000000000000000000000000000000000008152600401610ce89061153c565b60405180910390fd5b60008160050160009054906101000a900473ffffffffffffffffffffffffffffffffffffffff169050600082600601549050338360050160006101000a81548173ffffffffffffffffffffffffffffffffffffffff021916908373ffffffffffffffffffffffffffffffffffffffff160217905550348360060181905550600073ffffffffffffffffffffffffffffffffffffffff168273ffffffffffffffffffffffffffffffffffffffff1614610deb578173ffffffffffffffffffffffffffffffffffffffff166108fc829081150290604051600060405180830381858888f19350505050158015610de9573d6000803e3d6000fd5b505b3373ffffffffffffffffffffffffffffffffffffffff16847f0e54eff26401bf69b81b26f60bd85ef47f5d85275c1d268d84f68d6897431c4734604051610e329190610e59565b60405180910390a350505050565b6000819050919050565b610e5381610e40565b82525050565b6000602082019050610e6e6000830184610e4a565b92915050565b600080fd5b610e8281610e40565b8114610e8d57600080fd5b50565b600081359050610e9f81610e79565b92915050565b600060208284031215610ebb57610eba610e74565b5b6000610ec984828501610e90565b91505092915050565b600073ffffffffffffffffffffffffffffffffffffffff82169050919050565b6000819050919050565b6000610f17610f12610f0d84610ed2565b610ef2565b610ed2565b9050919050565b6000610f2982610efc565b9050919050565b6000610f3b82610f1e565b9050919050565b610f4b81610f30565b82525050565b6000610f5c82610ed2565b9050919050565b610f6c81610f51565b82525050565b60008115159050919050565b610f8781610f72565b82525050565b600061010082019050610fa3600083018b610e4a565b610fb0602083018a610f42565b610fbd6040830189610e4a565b610fca6060830188610e4a565b610fd76080830187610e4a565b610fe460a0830186610f63565b610ff160c0830185610e4a565b610ffe60e0830184610f7e565b9998505050505050505050565b61101481610f51565b811461101f57600080fd5b50565b6000813590506110318161100b565b92915050565b6000806000806080858703121561105157611050610e74565b5b600061105f87828801611022565b945050602061107087828801610e90565b935050604061108187828801610e90565b925050606061109287828801610e90565b91505092959194509250565b60006020820190506110b36000830184610f63565b92915050565b600082825260208201905092915050565b7f6f6e6c794f776e65723a2063616c6c6572206973206e6f7420746865206f776e60008201527f6572000000000000000000000000000000000000000000000000000000000000602082015250565b60006111266022836110b9565b9150611131826110ca565b604082019050919050565b6000602082019050818103600083015261115581611119565b9050919050565b7f41756374696f6e2068617320616c726561647920656e64656400000000000000600082015250565b60006111926019836110b9565b915061119d8261115c565b602082019050919050565b600060208201905081810360008301526111c181611185565b9050919050565b7f41756374696f6e20686173206e6f7420656e6465642079657400000000000000600082015250565b60006111fe6019836110b9565b9150611209826111c8565b602082019050919050565b6000602082019050818103600083015261122d816111f1565b9050919050565b60006040820190506112496000830185610f63565b6112566020830184610e4a565b9392505050565b60006060820190506112726000830186610f63565b61127f6020830185610f63565b61128c6040830184610e4a565b949350505050565b6000819050919050565b60006112b96112b46112af84611294565b610ef2565b610e40565b9050919050565b6112c98161129e565b82525050565b60006020820190506112e460008301846112c0565b92915050565b7f4e487b7100000000000000000000000000000000000000000000000000000000600052601160045260246000fd5b600061132482610e40565b91507fffffffffffffffffffffffffffffffffffffffffffffffffffffffffffffffff8203611356576113556112ea565b5b600182019050919050565b600061136c82610e40565b915061137783610e40565b925082820190508082111561138f5761138e6112ea565b5b92915050565b60006060820190506113aa6000830186610e4a565b6113b76020830185610e4a565b6113c46040830184610e4a565b949350505050565b7f41756374696f6e2068617320656e646564000000000000000000000000000000600082015250565b60006114026011836110b9565b915061140d826113cc565b602082019050919050565b60006020820190508181036000830152611431816113f5565b9050919050565b7f426964206d75737420626520686967686572207468616e20737461727420707260008201527f6963650000000000000000000000000000000000000000000000000000000000602082015250565b60006114946023836110b9565b915061149f82611438565b604082019050919050565b600060208201905081810360008301526114c381611487565b9050919050565b7f426964206d75737420626520686967686572207468616e2063757272656e742060008201527f6869676865737420626964000000000000000000000000000000000000000000602082015250565b6000611526602b836110b9565b9150611531826114ca565b604082019050919050565b6000602082019050818103600083015261155581611519565b905091905056fea264697066735822122067eacd58c32c9d8454924172bd56f4af03d920e034b8e3902f542461ff975b8964736f6c63430008130033",
  "linkReferences": {},
  "deployedLinkReferences": {}
}